:020000041102E7
:1000000003B40148019001BDE94C010003B401486B
:10001000019001BDCD4C010003B40148019001BD28
:10002000154D010003B40148019001BD1D4B0100B5
:1000300003B40148019001BDF54E010003B401482D
:10004000019001BD434D010003B40148019001BD81
:100050000D52010003B40148019001BD455101005A
:1000600003B40148019001BD2526000003B40148F6
:10007000019001BD8B52010003B40148019001BD04
:10008000B352010003B40148019001BDC94A010007
:1000900003B40148019001BD3D4B010003B4014888
:1000A000019001BD014C010003B40148019001BD64
:1000B000F94C010003B40148019001BD691F000023
:1000C00003B40148019001BD5D17000003B401486D
:1000D000019001BD5952010003B40148019001BDD6
:1000E0005125000003B40148019001BD594F0100A2
:1000F00003B40148019001BD8D12000003B4014812
:10010000019001BD4D1F000003B40148019001BDE5
:100110005522000003B40148019001BDDD520100E9
:1001200003B40148019001BD1D4D010003B4014815
:10013000019001BDBD18FF1F03B40148019001BD2E
:10014000B140FF1F03B40148019001BD1141FF1FE1
:1001500003B40148019001BDE117000003B4014858
:10016000019001BD7918000003B40148019001BD60
:100170004D40FF1F03B40148019001BDA53BFF1F87
:1001800003B40148019001BDC926000003B4014831
:10019000019001BD1DBC000003B40148019001BDE8
:1001A0006DBC000003B40148019001BD355500004D
:1001B00003B40148019001BDC51D000003B401480E
:1001C000019001BDB161000003B40148019001BD7F
:1001D000315F000003B40148019001BDDD5E000005
:1001E00003B40148019001BDA552000003B40148C9
:1001F000019001BD6918FF1F03B40148019001BDC2
:100200003554000003B40148019001BD6539FF1F5A
:1002100003B40148019001BD4D20FF1F03B4014804
:10022000019001BDD949010003B40148019001BD0D
:10023000BD18FF1F03B40148019001BDD554000053
:1002400003B40148019001BD1955000003B40148F1
:10025000019001BD0139FF1F03B40148019001BDA8
:10026000894A010003B40148019001BD351900001D
:1002700003B40148019001BDBD18000003B401485A
:10028000019001BDE11FFF1F03B40148019001BDB2
:100290000920FF1F03B40148019001BDC5210000E2
:1002A00003B40148019001BD291C000003B40148BA
:1002B000019001BD851F000003B40148019001BDFC
:1002C000A946010003B40148019001BD1147010096
:1002D00003B40148019001BD7130FF1F03B4014810
:1002E000019001BDFD29FF1F03B40148019001BD2C
:1002F0009536FF1F03B40148019001BD8D30FF1FEB
:1003000003B40148019001BD3D36FF1F03B401480D
:10031000019001BD0137FF1F03B40148019001BDE9
:10032000C929FF1F03B40148019001BDF138FF1F27
:1003300003B40148019001BD553CFF1F03B40148BF
:10034000019001BD4B3DFF1F03B40148019001BD69
:100350001D3FFF1F03B40148019001BD8D41FF1FE8
:1003600003B40148019001BDFD3CFF1F03B40148E7
:10037000019001BD853CFF1F03B40148019001BD00
:100380008D3DFF1F03B40148019001BDB73CFF1F25
:1003900003B40148019001BD333FFF1F03B401487E
:1003A000019001BDAB1FFF1F03B40148019001BDC7
:1003B0008D3CFF1F03B40148019001BD7D31FF1F3B
:1003C00003B40148019001BDD531FF1F03B40148BA
:1003D000019001BDB14E000003B40148019001BD80
:1003E0003D18000003B40148019001BD2146010001
:1003F00003B40148019001BD4D2EFF1F03B4014815
:10040000019001BD052DFF1F03B40148019001BDFE
:100410004D2DFF1F03B40148019001BDFD2BFF1FAF
:1004200003B40148019001BDF92EFF1F03B4014838
:10043000019001BDB13E000003B40148019001BD2F
:10044000BD21FF1F03B40148019001BD212400001C
:1004500003B40148019001BDE521FF1F03B4014829
:10046000019001BDC90E000003B40148019001BD17
:10047000055E000003B40148019001BDB11F0000FA
:1004800003B40148019001BDD91F000003B4014825
:10049000019001BDAD21000003B40148019001BDF0
:1004A000E548000003B40148019001BD2951010055
:1004B00003B40148019001BDD91B000003B40148F9
:1004C000019001BD091B000003B40148019001BD6A
:1004D000311B000003B40148019001BD9D47FF1F7F
:1004E0000A7802708A7842704A88120A8270097902
:1004F000C170042070470A7802700988090A4170A7
:100500000220704710B500220EE093005B189C7823
:1005100004705C88521C240A44701C7984709B8887
:10052000D2B21B0AC370001D0B789342EDD8180697
:10053000800D10BDF8B50D46064649780120317092
:100540000024761C16E06978012917D01221614336
:1005500049198A7832704A88871C120A7270B61C50
:1005600010223046091DFFF74BFD1037B8B2103688
:10057000641CE4B22978A142E5D8F8BDA10049196C
:100580008A7832704A88871C120A7270B61C02225E
:100590003046091DFFF734FDBF1CB8B2B61CE7E7B3
:1005A00010B50C46097801702188090A4170A278BB
:1005B000E11C801CFFF724FDA078801C10BD10B545
:1005C0000C46097801702188090A4170A178817070
:1005D0006188090AC1702279611D001DFFF710FDB5
:1005E0002079001D10BD10B50C460A78491CFFF794
:1005F00007FD207810BD10B50B784A780270534380
:10060000DCB22246401C891CFFF7FAFC601C10BDBE
:1006100010B50B784A7802705343DCB22246401C76
:10062000891CFFF7EDFC601C10BD10B50C460A7864
:10063000491CFFF7E5FC207810BD10B50C460A7880
:10064000491CFFF7DDFC207810BD7FB51546044638
:10065000022901D0102903D1022B04D0102B02D083
:10066000002004B070BD994202D10A46294607E035
:100670001029694607D000F00DF810226946284677
:10068000FFF7C4FCEDE7104600F004F810226946BD
:100690002046F5E770B50C4605000CD0002C0AD0BA
:1006A000102206492046FFF7ABFC287820736878B3
:1006B0006073012070BD002070BD0000218F021109
:1006C00010B50B460122024902F08CFE10BD00005D
:1006D000E104021170B5064608880C46172812D3AB
:1006E0000B4603220949304602F07CFE050008D182
:1006F000074920880988884200D20146304600F028
:10070000C9F9284670BD022070BD0000F70402112F
:100710009A52FF1F10B500231922194602F062FEFB
:1007200010BD000010B50A78002A05D00B4607223C
:10073000024902F057FE10BD022010BD050502114E
:1007400010B54A78012A01D0022A08D10A78002A75
:1007500005D00B460522034902F044FE10BD0220DD
:1007600010BD00003505021101494000085A7047CC
:100770004087FF1F10B50B461D22024902F032FED2
:1007800010BD0000A105021110B50B461B22024945
:1007900002F028FE10BD0000A1050211002004494E
:1007A00017224300401CCA520828FADB7047000099
:1007B0004087FF1F0098022B01D00420704711785A
:1007C0005278120289180180002070470098012B8E
:1007D00001D004207047117801700020704770B577
:1007E000049C1E461546062B1BD3697828780902FF
:1007F00040182080E978A878090240186080022219
:100800002271291D601DFFF7FBFBB61FF2B2E271DA
:10081000F02A06D82046A91D0830FFF7F1FB00207A
:1008200070BD042070BD0098042B01D004207047D7
:10083000537811781B02C91801809178D27812027E
:100840008918418000207047F8B50646007B0D46A8
:100850000406240E26D0B2681778380620D50C2C52
:1008600020D90C3CE4B21019009001217088234675
:1008700002F0F6F9002811D0022028707806C00F87
:100880006870B806800EA870641E2004000CA88052
:1008900001D0B068401CA8600020F8BD0120ECE742
:1008A0000020EAE70120F8BD10B502981146042B9C
:1008B00014D34C780A78240212190280CC788A78F2
:1008C0002402121942801B1FDAB20271F22A05D8E3
:1008D000401D091DFFF794FB002010BD042010BD32
:1008E0000098042B01D004207047537811781B0224
:1008F000C91801809178D2781202891841800020AD
:10090000704710B502981146062B03D0142B03D064
:10091000042010BD022200E0102202714B780A78F8
:100920001B02D2180280CB788A781B02D218428030
:100930000279401D091DFFF763FB002010BD000078
:1009400030B5039CD80718D1D805010E022914D35D
:100950000B488088814210D8F6200155002008E01D
:10096000557813782D025B194500401C6353C0B2C3
:10097000921C8842F4D3002030BD042030BD00001A
:100980009452FF1F0098022B01D004207047117869
:1009900052781202891801800020704770B5144601
:1009A00002460498022B18D3667825783602AD19D2
:1009B00005800546E035EA752976002A0BD0E82146
:1009C0009B1EDAB282708A4207D8A11CC01CFFF7B6
:1009D00017FB002070BDF421F2E7042070BD000079
:1009E00010B50B461722024902F0FCFC10BD0000B6
:1009F000BF05021110B50B460D22024902F0F2FCB0
:100A000010BD0000E705021110B50A78002A05D0D4
:100A10000B461122024902F0E5FC10BD022010BD78
:100A2000F705021110B50A78002A05D00B460922F5
:100A3000024902F0D7FC10BD022010BD11060211C0
:100A400010B50B460F22024902F0CCFC10BD00008D
:100A50002B06021110B50B460B22024902F0C2FC14
:100A600010BD00003B060211F72800D9F720084A04
:100A700001461080401EC3179B0F18188003000CFE
:100A80005080491EC80F4018C003000C908070476A
:100A90009452FF1F034A1288914202D8024A400032
:100AA000115270479452FF1F4087FF1F10B500235B
:100AB0001322194602F096FC10BD000010B5024941
:100AC000087303F04FF810BD7C4EFF1FFFB599B0BF
:100AD0000026079607AA089600F0DCF905460A28C2
:100AE0007CD204460620444320462030C0B26A46E9
:100AF0000E2105F073FF002802D168468089C6B236
:100B00001B984149099009781C98022913D00021AB
:100B10001791082811D020462130C7B21C2200218D
:100B20006846FFF779FA6A461C21384605F056FFF9
:100B3000002805D010E00121EAE720462230ECE74A
:100B40006846807EC01F092806D8F107C90F6A468B
:100B5000179B099800F0D4FD142200210BA8FFF781
:100B60005BFA20462430C0B20BAA102105F036FFF4
:100B7000002812D11022FF210BA8FFF753FA0028FA
:100B80000BD12534E0B20FAA042105F027FFF107AD
:100B9000C90F0BAA1B9800F0F7FF7035E8B210AA36
:100BA000102105F01BFF002811D110A802F0CBFF87
:100BB000002410ADA00040190188002903D08278DC
:100BC0001B9801F061FB641CE4B2042CF2D3B00763
:100BD00004D50D48017B1B9801F044FB1C980428A8
:100BE0000FD10949087802280BD10A791B98002AED
:100BF00000D001224978002900D00421114300F0DF
:100C00008BFF00201DB0F0BD7C4EFF1F70B52A4D3C
:100C10000C46080426D5287BFFF70AFA05001ED0EB
:100C20000178B02908D0B1290ED0D02914D100F014
:100C300045F8002810D112E001791E290CD16888EE
:100C4000002100F083F907E00179002904D102892D
:100C5000C188688800F062FA2846FFF7EFF90120A2
:100C6000C00325E0A0070DD50021084602F058FD7D
:100C7000002805D00121287BFFF7E6F9022017E0C4
:100C8000022070BDE007FCD0E869808802F0F8FF20
:100C900000280FD0A869002807D04368002B04D093
:100CA000E869002280880121984702F02BFD01208D
:100CB000604070BD012070BD7C4EFF1F7FB5827803
:100CC0006B4C921FA169130002F078FB0AACD0D0E4
:100CD000631B06D0D05A75D00546002908D00E688F
:100CE000002E05D06B7B2A7B6989E81CB047BDE0EC
:100CF0006989606900F02EFE0028F8D0688901211A
:100D00008AE005464078002829D1A879C00726D076
:100D1000E069002823D10E2200216846FFF77CF904
:100D20006969002903D006226846103107E0A888C7
:100D300005F03EFB00283DD0811D06226846FFF7E6
:100D40005FF969468889A9794907C90F0843694647
:100D500088812946684602F0E3FC002809D0A06992
:100D6000002827D04368002B24D06A78A888012166
:100D70004FE00221207BFFF767F9002004B070BD2F
:100D8000002973D04B68002B70D0427880880221F4
:100D90003FE00446C0780022211D00F07BF80A28BD
:100DA00064D20621484325302246C0B20C320421C9
:100DB00005F040FE5AE005466079002802D0A88878
:100DC000A17929E020780028A88824D005F0F0FA3D
:100DD0000646A87AC0070DD0002E47D070790028AB
:100DE00008D0A989890505D46A46B11D00F052F8DA
:100DF000002814D02A467179A888083202F02CFD08
:100E0000A069002832D04368002B2FD00022A88888
:100E1000114698472AE0052100F0DCFE26E0A8886C
:100E20000321F9E700F076FD00281FD1A07A002603
:100E3000012805D00F4D0024285D012809D00CE0C1
:100E400002F0C2FDA6720A2200210A48FFF7E4F868
:100E500007E0204602F0C4FD2E55641CE4B20A2CC3
:100E6000EAD3502005F0B8FD02F07CFE012085E7B2
:100E70007C4EFF1F7076FF1F10B5054CA061217BD3
:100E8000262000F071FE207B01F044F910BD000027
:100E90007C4EFF1FF0B50A2485B016460F46002889
:100EA00007D0012805D00A25022810D0032847D1F1
:100EB0001FE0084602F006FE04460A2840D2002E33
:100EC0003ED0062239463046FFF79AF838E01E4FEA
:100ED000002400910E206043C0190622801D009955
:100EE000FFF794F8002823D1641CE4B20A2CF1D354
:100EF0001CE000242046062148432330C0B26A4645
:100F0000102105F06BFD00280CD11022FF2168464E
:100F1000FFF788F8002805D13946684600F0D8FD6B
:100F2000002805D0641CE4B20A2CE3D32C4607E069
:100F30000A2C05D2002E03D03146204602F0E8FDEF
:100F4000204605B0F0BD0000E475FF1F70B50E46E9
:100F500017491525884212D1002432460221204625
:100F600002F006FD002800D00025641CE4B20A2C23
:100F7000F3D3002E1AD00F4805F07AFA16E005F0E8
:100F800017FA040011D060790022A11DFFF782FF3B
:100F90000A2804D23246022102F0EAFC0025002E83
:100FA00004D0204602F00CFE00E01425284670BD57
:100FB000FFFF0000C13B0211FEB51546012292025F
:100FC000821A00240127524E130002F0F7F9110A89
:100FD00011161D242B333A3F477279818997975216
:100FE000970001297ED1287802287BD830708DE0C7
:100FF000022977D12888F08188E0012972D12878E8
:1010000001286FD8707081E001296BD128780428FD
:1010100068D8B0707AE0012964D12878012861D8B5
:10102000F07073E010295DD1102229463948FEF78F
:10103000E7FF6BE0012955D12878012852D830719B
:1010400064E001294ED12878F0715FE0042949D18C
:1010500031492868884245D8706157E0002941D15C
:1010600000F058FC002801D0B7724FE002F0ACFC51
:1010700019E0072936D10622691C6846FEF7EAFF07
:10108000287800226946FFF705FF05460A280ED298
:1010900000F040FC002803D01E489C30475535E046
:1010A000284602F09DFC502005F096FC23E0022427
:1010B0002CE0012916D12878012813D8707125E079
:1010C00001290FD1287809280CD8B0711EE009E059
:1010D000012907D12878C11F092903D8307215E0EA
:1010E000012901D0182411E0717A28787072002942
:1010F0000CD101280AD102F035FD07E02728D6D20D
:101100000229D4D1298800F02FFD04462046FEBDD7
:101110007C4EFF1FD475FF1F3F420F00F8B50F46EE
:1011200013491525164688420DD10024324639460A
:10113000204602F04FFD002800D00025641CE4B2D8
:101140000A2CF3D312E005F033F900280DD04379CF
:10115000811D00221846FFF79DFE0A2806D232465E
:10116000394602F037FD002500E014252846F8BD79
:10117000FFFF000070B50C460146032000020A1A6A
:1011800000253448130002F019F91D1012151C1F18
:101190002326282C303234383A3C3E4042444648DC
:1011A0004A4E50525A5456585A00C07911E01022F3
:1011B000294902E02849102210312046FEF720FF7D
:1011C00045E0C06A206042E0224906223C31F4E753
:1011D000007820703BE0808936E01E494278423139
:1011E000EBE71D4982781F39E7E7007AF1E7407A9B
:1011F000EFE7184906223031DFE7807AE9E7C07A65
:10120000E7E7C08920E0808A1EE0C0781CE0C08A41
:101210001AE0008B18E0408B16E0808B14E00D493B
:1012200006223631C9E7C08B0EE0008C0CE0408C02
:101230000AE08079CDE7008A06E0408A04E02729A9
:1012400004D2084600F0EAFA208000E00225284691
:1012500070BD0000244FFF1FAF76FF1F70B50E4C0E
:1012600000256071A571691EE18100F02BFC04204E
:10127000E071102200210948FEF7CEFE0748102237
:1012800000211030FEF7C8FEE5622572657201206C
:10129000A072E57270BD0000244FFF1FAF76FF1FE4
:1012A000FEB53B4D0C4608040CD56879FEF7C0FE30
:1012B000050004D003F040FA2846FEF7BFFE0120E7
:1012C000C00360E0600403D5012080034840FEBDF8
:1012D0002F48E1070126807900292AD029780029A2
:1012E00020D0052821D0297A68460170697A41709A
:1012F000274906223031801CFEF782FEA97A684613
:101300000172E97A41726946687900F0A3FA00280F
:1013100008D00720A871696A002903D0096800294C
:1013200000D0884720467040FEBD03206946087003
:10133000E4E7A1070DD5052809D1E889FEF790FE5D
:10134000AA8A002A03D002216879FEF78FFE0220C4
:1013500019E0600704D5002003F046FA042012E0EB
:10136000200712D52879012802D002280AD107E0E7
:101370000096AB8B6A8B298BE88A00F00BF801E0B2
:1013800000F05AF908206040FEBD0020FEBD0000BC
:10139000244FFF1FF8B5134C069EA579052D01D0EB
:1013A0001420F8BD104F851FBD4219D2062917D34E
:1013B000BD1DA94214D2FF27F537BA4210D20A2B1D
:1013C0000ED3AB420CD2E08221836283A3833046EA
:1013D00003F00AFA04216079FEF74EFE0020F8BD02
:1013E0001820F8BD244FFF1F7A0C0000F7B50D46FA
:1013F00080490098164642187F4F00247879B979C1
:10140000130001F0DBFF190E141BE9204045597051
:10141000777E888FE996A2A9B4BFC8E9E9E9E9D344
:10142000E900102D76D11022314674486FE0102D5E
:1014300070D1724810223146103068E0042D69D115
:101440003068F862CEE0012D64D13B7832783A7092
:10145000002B0AD0002A07D1022903D0062901D087
:10146000042901D100F0B0F9BCE0002A0AD001291A
:1014700005D0032903D0052901D0042902D1012177
:10148000FEF7E2FDAEE0022D44D13088B881A9E03C
:101490001F2D3FD858481F2200214230FEF7BCFDC7
:1014A00055482A4631464230FEF7AAFD524B7D7020
:1014B00042332A46012112E01F2D7CD84F481F22BB
:1014C00000211F38FEF7A8FD4C482A4631461F3838
:1014D000FEF796FD494B2A461F3BBD7000217879E7
:1014E00000F0C8FB83E0012D65D13078042862D874
:1014F000387277E0012D5ED1307803285BD878729E
:1015000070E0062D57D13C48062231463030FEF7B8
:1015100077FD67E04FE0012D4DD1307807284AD89C
:10152000B8725FE0012D46D13078032843D8F872B5
:1015300058E0022D3FD13288BA82002A52D00529C4
:1015400050D10221FEF792FD4CE0012D33D13078CD
:10155000012830D8F87045E03088022D2BD10628BC
:1015600029D31921C901884225D8F8823AE0308868
:10157000022D20D106281ED31921C90188421AD86C
:1015800038832FE03088022D15D1FF21F5318842B4
:1015900011D2788326E03088022D0CD10A280AD394
:1015A0001921C901884206D8B8831BE03178012D82
:1015B00001D1012901D0182414E00821FEF762FDB1
:1015C000002801D016240DE0002003F00DF90421BD
:1015D0007879FEF751FD05E00098272801D2022D09
:1015E00002D002242046FEBD318800F0BDFA044638
:1015F000F8E70000FFFCFFFF244FFF1FAF76FF1F3F
:101600001CB50B4CA179002901D011201CBD00286C
:1016100000D06062064907482C31034601910090D2
:10162000103B0022E179607900F0AEF800201CBD8B
:10163000244FFF1FBF76FF1F10B50648817905298B
:1016400001D0122010BDC1891322407900F0D2FAD6
:1016500010BD0000244FFF1FF8B50F462549044672
:101660000878022805D0012803D0082803D1002FCC
:1016700001D01220F8BD002C05D01F4DA86800280D
:1016800003D01120F8BD0220F8BD208804F090FEA0
:1016900006002BD02C20FEF7FBFCA860002827D0EA
:1016A0002C220021FEF7B8FCA868218841801C226A
:1016B000211D001DFEF7A4FCAB68022018700D4828
:1016C0000E49007822880007C00F09781B1D01F021
:1016D00083FA0446002F03D03946304606F010FB4B
:1016E000002C01D002F07AFB2046F8BD1420F8BD92
:1016F0001320F8BD9F52FF1F0053FF1F2D53FF1FE4
:10170000FFB5204D81B028781E461746022823D009
:10171000012821D0002F22D0019804F049FE0400B6
:101720001FD0606A002801D0FEF7B8FC1C213846A3
:10173000FEF7BAFC6062010015D02878000714D5C6
:10174000002E12D0887E00900B4612330A8A019830
:1017500006F086FD014609E0122005B0F0BD02202A
:10176000FBE71420F9E71320F7E700212079042292
:1017700010432071029A002A02D0022210432071E5
:101780000846EAE79F52FF1FF8B51D460224069F50
:10179000079E0B0001F012FE0D1508151508151512
:1017A000151515151508150000F0B8F8040008D136
:1017B00032463946284600F08FF900F0EFF801F084
:1017C000FBF92046F8BD000070B5104C21680029D7
:1017D00004D00978814203D0032070BD122070BD6F
:1017E0000B4D02212878FEF747FC0A480026468068
:1017F00004212878FEF740FC074806802168032072
:1018000048700020FEF756FC70BD0000FC52FF1F20
:101810002D53FF1F1053FF1FA252FF1F272803D273
:1018200002494000085A704701487047AA52FF1FFA
:10183000FFFF000010B5064C607004F0E9FD607811
:10184000FEF73EFC0521607801F06CF810BD000049
:101850002C53FF1F70B5284E054630680C460028F3
:1018600001D0112070BD254801780520014216D015
:1018700023488068002805D00078002802D0C807D7
:1018800006D101E0102070BD00F044F8002808D017
:101890002078032805D0022803D0002801D0122088
:1018A00070BD0C20FEF7F4FB3060002820D00570DE
:1018B000002141700A222146801CFEF7A1FB03F0A3
:1018C00077F8040002D002F07DFA12E00D480078AB
:1018D00003280ED11D20FFF7A1FF0B490028088027
:1018E00007D00B48094A04210078FEF7EFFB00E01F
:1018F0001324204670BD0000FC52FF1F9F52FF1FA3
:101900001053FF1FA052FF1FA252FF1F60EA0000EA
:101910002D53FF1F10B504F099FD10BD70B50C4696
:1019200005461C2200210948FEF776FB0848057091
:101930004470FEF7D1FB0549002803D00020087051
:10194000122070BD01220A7070BD00005087FF1F79
:101950009E52FF1F7FB504460D46084604F028FD41
:10196000002805D00C48844204D9022004B070BD80
:101970001220FBE7102200216846FEF74DFB684667
:101980000470210A4170210C8170210EC17029461A
:1019900001F07AF8EAE700003F420F0070B50F4C03
:1019A0000025A068002802D0FEF778FBA560E0685B
:1019B000002802D0FEF772FBE56009480521007897
:1019C000084206D00548103002F0B6FD01F070FE66
:1019D00070BD002002F0B0FD002070BD1053FF1F4D
:1019E0009F52FF1FFEB5344D0C46080419D5687888
:1019F000FEF71EFB0121C9034C40064600280ED00D
:101A000002F0BAFC002807D12878FF2804D031461C
:101A1000FEF768FB002802D03046FEF70FFB204699
:101A2000FEBDE007012700280AD0A868002804D0DE
:101A30004168002901D00020884720467840FEBD3B
:101A4000A00709D56868002804D04168002901D0A2
:101A50000120884702202AE060072AD5174E3088E7
:101A600000281FD0401E0004000C30801ED102F060
:101A700019FA002809D0124807706868002804D0B5
:101A80004168002901D00120884702F0E5F9694644
:101A900000F078FF684602F059FC1D20FFF7BEFEFB
:101AA000308003E004216878FEF7E6FA0420604005
:101AB000FEBD0020FEBD00002C53FF1FA252FF1FE1
:101AC000A152FF1F01490870704700002C53FF1FEF
:101AD00010B501F04BF810BD70B50E4C0B46261D2D
:101AE00007C60546102200211846FEF79BFA01287A
:101AF00003D11021A06805F077FF102200212846AD
:101B0000FEF790FA012803D11021606805F06CFF00
:101B100070BD00005087FF1F38B505460F480C46C2
:101B20000078400701D4122038BD284604F040FC5C
:101B3000002810D00A480068002801D0817D00E00C
:101B40002146684606F0B9FB064B6A460221284644
:101B500006F046FB38BD142038BD00009F52FF1F21
:101B60000853FF1FC5870211272807D2044A914254
:101B700004D0044A400011520020704702207047F0
:101B8000FFFF0000AA52FF1F70B50E461049154610
:101B90000978022916D0012914D0002D14D004F0A0
:101BA00007FC040012D0002E03D020790221084344
:101BB000207110222946A018FEF722FA2869206217
:101BC000002070BD122070BD022070BD142070BDB9
:101BD0009F52FF1F38B50C46054604F0E9FB00286C
:101BE00006D0684604706946284606F0E9FA38BD12
:101BF000142038BDF8B50D4617461D4906461B4A48
:101C00001224C868954208D100282DD00268002A05
:101C10002AD029463046904723E0144A521C954268
:101C200013D1002807D00268002A04D02946304684
:101C30009047040005D03946304601F013FD0400FA
:101C400012D10B48067047700EE0284604F0B0FB36
:101C5000002809D00078B04205D139462846FEF761
:101C600047FA044600E003242046F8BDFEFF0000CA
:101C70000053FF1FF8B50E46014619481546007877
:101C800005221F46104028D0304326D01548012E8B
:101C90001BD0C468002C20D01F2D18D8002D01D0D7
:101CA000002F14D001701F220021601CFEF7B4F930
:101CB0002A463946601CFEF7A3F928462570002EF7
:101CC00007D0611CFEF71AFAF8BD8468E2E702202B
:101CD000F8BD611CFEF718FAF8BD1220F8BD00002F
:101CE0009F52FF1F1053FF1F014610B50020C90768
:101CF00004D0034A0421034800F012FA10BD00008A
:101D0000808E0211944FFF1F10B5002309E01C01C3
:101D10002418E468944202D11901081810BD5B1C14
:101D20009BB28B42F3D3002010BD000070B50E4D66
:101D30000F4CA8700D49204600F020F800210D48F6
:101D40000B46CA0084521218491CC9B253600829B4
:101D5000F7D3012003F00EFDA87800F067FC0648D9
:101D600004F09CFB70BD0000884FFF1FC080FF1F68
:101D7000FFFF0000D076FF1FA94F021170B50A4C7B
:101D80000025A04209D1002082008C525218401C2C
:101D9000C0B295700928F7D370BD03F0D4F80028BD
:101DA000FAD00480857070BDFFFF0000F8B50E46C4
:101DB0000746069900240798002902D00B242046E4
:101DC000F8BD022B01D00D24F9E7117852781202E8
:101DD00089188DB22946814301D08024EFE7384627
:101DE000F16800F08FF9A842E9D02A463846F16838
:101DF00000F07CFA0400E2D171892A46384600F0EE
:101E000015FADCE7FFB506460020C3B0244F0546AF
:101E10000490A80084192088B8423AD0A0780028FD
:101E200037D0449A4C994698FFF76EFF03900028EC
:101E30002FD020881B494200895C05AAC91EC9B25F
:101E400000230232019300920291469905AB4A8920
:101E50000333039900F044F800281AD10398694627
:101E600040898882A078C00707D0208805A9459AB4
:101E700000F0AAFB049908430490A078800708D5D5
:101E8000208805A94D9B459A00F042FB0499084320
:101E900004906D1CEDB2092DBBD3049847B0F0BD82
:101EA000FFFF00004087FF1F70B50C46080412D5E5
:101EB0000A488078FEF7BCF8050008D02878B028DA
:101EC00002D1284603F05EF92846FEF7B7F8012054
:101ED000C003604070BD002070BD0000884FFF1F30
:101EE000FFB587B0087A0025109E1C460F46C00635
:101EF0000DD5099803F020F8030006D00A223946D0
:101F000007989847050035D101E00E2532E0387872
:101F100002281DD178682922017840781202000237
:101F2000081880B2811A90427ED009DC7249401AAA
:101F300023D0012821D0022851D0032808D125E040
:101F4000012972D0022971D003296DD004296ED0E5
:101F5000099803F019F80028D7D00568002DD4D0CF
:101F600012991198019100903346224639460798FC
:101F7000A847054628460BB0F0BD1198002873D13C
:101F8000F868017831700278416897E0119800286C
:101F90006AD101203070F8680021007820707889BB
:101FA000401C80B200F012FA00280FD0317802787D
:101FB0008918891C3170817A61704189090AA17080
:101FC00002784168E01CFEF71BF8D3E73078042262
:101FD000001D30700021601CFEF71EF8CAE7119842
:101FE000002872D1F86804A900880090042030709D
:101FF000009820700098000A6070009800F0E6F9E0
:10200000070028D0F86805906846028A03AB3B4970
:10201000384600F033FA00280FD13B7802213848C7
:102020007A68FEF712FB03E027E031E01DE049E0AB
:10203000002802D131486946888105980078022835
:102040000CD1059802224168201DFDF7D9FF307898
:10205000801C307002E0694600988881684680895B
:10206000A070000AE07085E72FE0119800282CD1BD
:10207000F968079800F046F804E01198002824D188
:10208000F8680088022131702070000A607071E7E2
:10209000F868FEF73FF81199C0B2814210D881422A
:1020A00001D1002206E0129A8918814202D31199C7
:1020B000401AC2B23270F96811980918204682E7B6
:1020C000072557E71198002801D00B2552E7072173
:1020D000F868317001782170417861708178A17061
:1020E0004188090AE1700179217181796171C088A3
:1020F000000AA0713EE7000000280000FFFF00007A
:102100009A8F021110B502F01EFF002800D08078CF
:1021100010BD00000149087070470000884FFF1F84
:10212000FEB515460F46060021D068460196078089
:1021300000F082FA044614480078002803D139469A
:10214000304600F025F8002C1CD1002D1AD07689DD
:10215000002E0CD00C20FDF79BFF002809D0046056
:1021600086800A4A85605168002904D006E002246E
:1021700008E0132406E0506004E011460A68002AD3
:10218000FBD108602046FEBD5E53FF1F884FFF1F36
:10219000F0B5426800241378002B3CD15278282AED
:1021A00039D1C268032513782D03022B02D0102BDE
:1021B00006D030E053685A781B7812021A4304E0C4
:1021C0005268937B567B1A023243AA4223D90122DA
:1021D000144D24E01301C65C022E1ED11B185E684C
:1021E0009C46737836781B0233436E782F7836021C
:1021F0003E439E4211D16346DB681B78DB060CD55B
:10220000521C92B28A4206D211010818418906482E
:102210004180012101702046F0BD521C92B28A42D9
:10222000D8D3F8E79E8F02115E53FF1FF8B50C4C10
:102230000746207815460E46FF280FD00A20FDF7E6
:102240006FFF01000AD0B1200870002048700871AB
:102250004F80CE800D812078FDF744FFF8BD00004F
:10226000884FFF1F70B50C4605460649FFF74AFF29
:10227000800704D52146284600F032FA70BD0120BF
:1022800070BD0000C080FF1F1CB56B461A71120A9A
:102290005A7100220092022301AA00F001F81CBD2D
:1022A000FFB583B008461E4601A90C9F00F08EF8CA
:1022B000050019D06846808802F066FE002811D01B
:1022C0004468002C0ED00097F3B22946059A039873
:1022D00000F022F80097F3B22946059A0398A04728
:1022E00007B0F0BD0E20FBE70120F9E770B51446FA
:1022F0000E46054602F027FE002806D13146054865
:1023000002F021FE002803D005808470002070BDFB
:10231000112070BDFFFF000070B51546BEB01278E9
:10232000002642981C467B2A02D16A78102A02D0E5
:1023300000203EB070BD0A7A920601D50820F8E769
:102340000B78032212034968022B09D04B7B897B4F
:102350000902591889B291421FD9002815D01CE0F2
:102360000B7849780902591889B2914215D9002889
:1023700013D1002C11D0224629466846FDF740FEB5
:102380002146684604F0B0FD07E0002C05D0F1229C
:1023900000216846FDF740FEEDE73046C9E710B57D
:1023A0000178B0290BD14178002908D1017912298F
:1023B00006D01B2903D14088012100F069FA10BD25
:1023C000FF210131095C0129F5D010BDF0B58C4623
:1023D00010494B6819E09F687C89A04214D39E88FD
:1023E0003119814210D900220CE011017D18698950
:1023F000814205D16046002800D004802846F0BD07
:10240000521C92B29642F0D81B68002BE3D10020F8
:10241000F0BD00003853FF1FFFB5174881B00A9F79
:10242000446824E000251EE0A06829014618708950
:102430000199884215D30299884212D8049800283D
:1024400007D031787068049B039AFEF7FEF80028E5
:1024500007D0002F02D0A06840893880304605B0F0
:10246000F0BD6D1CADB2A088A842DDD82468002C58
:10247000D8D10020F3E700003853FF1FFEB5174600
:1024800000256A469580044640891D4A1E469042B2
:1024900008D001AA0092401C237880B26268FFF73E
:1024A000BBFF05462378022116486268FEF7CDF887
:1024B000002807D12378022113486268FEF7C5F887
:1024C000002801D060890EE0237802210F4862685D
:1024D000FEF7BBF800280DD0002D03D06846808899
:1024E000B84203D0384603F057FA04E06889401E2A
:1024F00080B200E06089002E00D030802846FEBD0A
:10250000FFFF0000988F02119A8F02119E8F021117
:10251000FFB581B00F461E4614466946019802F089
:1025200059FB050018D1002C06D00122102101987A
:1025300003F018FF05000FD139460198FEF71AF98C
:10254000050009D1009CFF2E06D021461E22A31CA7
:10255000034803F02DFAE670284605B0F0BD0000F0
:102560009D58021110B505490870042100F0DAF9F0
:1025700000F006F8FEF712F910BD00004053FF1FEF
:1025800070B50E4C00200C4B651CFF228100C91851
:1025900000280ED00D80401CCA70C0B28A70092875
:1025A000F4D3074802F0BAFC064803F077FF002096
:1025B00070BD0C80EFE700006C87FF1FFEFF00007E
:1025C000C95802111D580211F8B50D4614460646A9
:1025D000694602F0FFFA17280CD0002C06D0012221
:1025E0001021304603F0BEFE002803D129463046B4
:1025F000FEF7CAF8F8BD000070B50C46080411D506
:1026000009480078FDF714FD050007D00178A029DE
:1026100001D102F027FC2846FDF710FD0120C00380
:10262000604070BD002070BD4053FF1F014908701D
:10263000704700003853FF1F70B50546008800281A
:102640001DD068680221037842682248FDF7FDFF2B
:10265000002808D168680221037842681E48FDF707
:10266000F4FF00280BD01D4C6088002805D0012203
:1026700029881204101A814203D9012070BD02205A
:1026800070BD0C20FDF704FD060001D000200AE01B
:10269000132070BD02016B6861880A329952491C8F
:1026A000401C618080B229888142F3D800203060CC
:1026B00008222946301DFDF7A3FC6068002802D1DE
:1026C000666004E0084601680029FBD1066000202E
:1026D00070BD0000988F02119A8F02113853FF1FAE
:1026E00070B5BEB00D460646002402230E4A0F49BF
:1026F00001200094FFF790FE002812D040896A461E
:102700001080042090700120D0701471FF2050714F
:1027100090712B46002269463046FFF7F9FE3EB025
:1027200070BD0120FBE70000B68F0211FFFF000023
:102730000649496806E08A685289824201D1888840
:10274000704709680029F6D1002070473853FF1FF1
:1027500010B51422114201D0012202E04A0604D52C
:102760000022102103F0FEFD10BDC80701D000209B
:1027700010BD022010BD10B514468A0604D50122F2
:10278000102103F0EFFD10BD882211420ED0082267
:102790000A40102103F0E6FD00280BD0E034217E32
:1027A0000029F0D0E17D0129EDD103E0880701D4B3
:1027B000032010BD002010BD014610B50020C90740
:1027C00004D0034A07210348FFF7AAFC10BD00000C
:1027D0006C8E0211B04EFF1F70B50D4616460024D8
:1027E0001D49030000F0EAFD0805123434193422B3
:1027F0002934152D23D8162200211848FDF70CFC8A
:102800002A4631461548FDF7FBFB22E0022D16D182
:1028100011491088103908801BE0082D0FD10E488F
:10282000082231460838FDF781FC12E0012D06D15F
:10283000CA6909493078283107E0012D01D01824F0
:1028400007E0CA6B04493078483103F074F900E0BE
:102850000224204670BD0000B04EFF1F7A76FF1F95
:1028600008B5044B009313460A460121FDF764FCAA
:1028700008BD0000611FFF1F1CB5032301920093D8
:102880000A46024B1221FDF75DFC1CBD793BFF1F80
:1028900013B504480078012803D101AA6946FDF761
:1028A00057FC1CBD4C53FF1F70B50F490F4A0870F1
:1028B00000210B468C00491CC9B213530429F9D3DB
:1028C0000A4C00211034FF260A460A256A431519CE
:1028D0006B80491CA354C9B26E720329F4D3FDF76F
:1028E0003DFCFDF741FC70BD4D53FF1F9087FF1F5E
:1028F00070B50C46080411D509480078FDF798FB1F
:10290000050007D00178902901D103F06FFB28461C
:10291000FDF794FB0120C003604070BD002070BD36
:102920004D53FF1F072907D0052905D0042903D0DF
:10293000062901D002207047044A8B009A181346DA
:10294000403B1986203A9074002070479087FF1F03
:1029500070B50A880C460546072A07D0052A05D017
:10296000042A03D0062A01D0022070BD012103F001
:10297000C3FD002804D021462846FDF7FBFB70BDAF
:10298000142070BD38B50C46050014D0002C12D0B0
:102990000321684605F028F86946887840218006BA
:1029A000800E0843694688702246284605F045FD9A
:1029B000050002D006E0022038BD03226946E01C73
:1029C000FDF71EFB284638BDF7B58EB00E981546AC
:1029D0000E4600282DD0002D2BD0301DC0B2019006
:1029E000FDF756FB040039D001F042FA07463246A3
:1029F000201D0E99FDF72EFBF8B20890E070380408
:102A0000000E0B90A0703802000E0A9060703F0E0E
:102A1000277001F027FA0146102202A8FDF71AFBE1
:102A200006AB214602A8019A05F05DFC060003D022
:102A300010E0022011B0F0BD089828700B98687063
:102A40000A98A870EF70082206A9281DFDF702FB5E
:102A500001F014FA2046FDF721FB00E01326304672
:102A6000E8E7000010B5064C2070FDF789FB062151
:102A70002078FFF757FF034803F010FD10BD00005A
:102A80005C53FF1F3D7A021170B51F4D0346286845
:102A900000240A46002807D02421095C022905D019
:102AA000032903D0042901D0122070BD81889142EE
:102AB00001D0022070BD102219460C30FDF7A0FA9B
:102AC00028681021353004F08FFF2A68114610461F
:102AD00035310C30253205F0D3FC2868022102780C
:102AE000002A427806D0032A0AD1417004F048FF38
:102AF000044605E0042A02D0032A03D000E0417016
:102B0000204670BD0521F0E76C53FF1F70B50C46E1
:102B1000080418D513480078FDF78AFA05000FD08D
:102B200005F0A4F8002808D10F480078FF2804D049
:102B30002946FDF7D7FA002802D02846FDF77EFA8D
:102B40000120C0030AE0E00703D005F0B1FB01203B
:102B500004E0A00704D504F081FF0220604070BDAE
:102B6000002070BD5C53FF1F2C53FF1F7CB50C462B
:102B700005001DD0002C1BD00322E11C6846FDF788
:102B80003FFA6946887840218006800E08436946EE
:102B9000887001AA284605F050FC002807D10322BE
:102BA000214601A8FDF732FA012803D001207CBD9F
:102BB00002207CBD00207CBD10B505480078400790
:102BC00001D5044800E0002005F004F9002010BD04
:102BD0009F52FF1F5053FF1FFFB5204C0746206830
:102BE000002681B01D46002802D0112005B0F0BD9E
:102BF000002D0BD02120FEF711FE297E884205D83A
:102C00002220FEF70BFE297E884201D20220EDE74A
:102C10007820FDF73DFA206000281DD078220021A1
:102C2000FDF7FAF92068002141700770029A82705E
:102C3000039A82808560016220300171002F02D0EA
:102C400004F0B4FE064601202168002E487001D031
:102C500004F06AFE3046C9E71320C7E76C53FF1F34
:102C6000FFB58DB00F98169C0E46002815D0002C8D
:102C700013D00D9803F09CFB050011D061782078EB
:102C800009024018A178E278090412068918471849
:102C9000286AB84206D3401C04D0022011B0F0BD0F
:102CA0001420FBE7002E04D02879800701D40120EE
:102CB000F4E70822002106A8FDF7AEF91098001DE0
:102CC000C0B20190FDF7E4F9060017D0301D109A4C
:102CD0000F99FDF7BFF9042221463046FDF7BAF9F6
:102CE0001022A91802A8FDF7B5F906AB314602A8D3
:102CF000019A05F0F8FA050002D013E01320CDE7A1
:102D0000082206A908A8FDF7A5F90822211D08A890
:102D1000FDF77CF9012801D0012503E039460D9823
:102D200001F0A0FE3046FDF7B9F92846B6E70000ED
:102D3000F0B5884CC7B0A07206211F20FEF714FF23
:102D400000256846057201260673072101748582F5
:102D50001821818319277F010784FF218584F5319C
:102D600001857DA103C90191009021786846017613
:102D700006AA01217A48FEF739FB79486A460621FE
:102D8000801CFEF733FBC32004AA01218000FEF75C
:102D90002DFB734802AA0121001FFEF727FB704894
:102DA00005AA0221C01EFEF721FB21466631084616
:102DB00012223838FDF724F9224661202C321C21DA
:102DC000C000FEF713FB6648224648321E21801ED3
:102DD000FEF70CFB312003AA01210001FEF706FBE0
:102DE0005F4807AA02210830FEF700FB5C4808AAEA
:102DF00002210930FEF7FAFA594809AA02210A30DD
:102E0000FEF7F4FAC5200AAA02218000FEF7EEFAC6
:102E10002246663215210020FFF7DEFC39460620E7
:102E2000FEF7A2FE39460720FEF79EFE394608202F
:102E3000FEF79AFE39460920FEF796FE6846009591
:102E40000671067203210173067481206A4604210B
:102E5000C000FEF7B1F8012101AA8802FEF7ACF824
:102E60003F4802AA0121F930FEF7A6F83C4803AA20
:102E70000121FA30FEF7A0F8394804AA0121FD30FB
:102E8000FEF79AF86D1E2846FFF796FC2846FEF7D7
:102E90002BFF03F085FE284600F0F2F931A10FC99F
:102EA0006D460FC5334968460182334981820F213F
:102EB0000176002007A901E0062801D2002200E0E7
:102EC00002460A54401CC0B2FB28F5D36A461021C2
:102ED000002000F02FFA04AA0221012000F02AFAB3
:102EE000022105AA084600F025FA06AA01210320BE
:102EF00000F020FA07AAFB21042000F01BFA1F496A
:102F000000200854401CFF28FBDB1248183000F05A
:102F100007FAF7250120FDF739F90120FDF73CF903
:102F20002846FDF7A1FD294615A000F083FB0121ED
:102F3000A07AFDF789F8A07AFEF7C4FD1748FDF7DF
:102F400031F902F047FF03F059FF154800F072FB1A
:102F500047B0F0BD1052FF1F010203040506000038
:102F600009030000FDA50693A4E24FB1AFCFC6EB65
:102F70000764782574270000ED6B00002C86FF1F86
:102F80005B324D627073207C20444C45207C204D88
:102F900054552025645D200A000000007084FF1F46
:102FA00038900211F0B5854D0C46A87A85B0090419
:102FB00013D5FDF73DF805000CD02878912806D1EF
:102FC00068780E2803D1A9887DA000F033FB28463D
:102FD000FDF734F80120C003EBE0E10701260029EA
:102FE0000DD076481C30FEF70BFB74482430FDF7FB
:102FF00043FFFDF7DDF82046704005B0F0BDA107A6
:1030000001D50220D5E0210708D5684606706A463A
:1030100001217648FEF7EAF90820CAE06107002698
:10302000002959DA002742E0288A7149020A0A7009
:103030004870002F23D16D4803A91130FEF79AF88C
:103040006A4804A91230FEF795F869460020FDF79A
:10305000B5F801A90020FDF7B7F802A90020FDF797
:10306000B9F8694662480978417469468988FF3928
:10307000FF390239891081746946097AC1740020C8
:10308000FDF772FBC01EC1B2594A052004F0BCFA1C
:103090002A8A0028014603D056A000F0CBFA09E0A6
:1030A0005AA000F0C7FA288A401C28827F1CA87802
:1030B0008742B9DBEA89002A07D0E878002809D1DD
:1030C0000421A87AFCF7D2FF04E00421A87AFCF7D7
:1030D000D3FF2E8204206CE0E10660D5698A0029C6
:1030E00056D00020FDF77CF8029040486946113028
:1030F000FEF740F868460088810008188003020C3B
:1031000068460280062042432021A87AFCF7AEFFE1
:10311000364801A91230FEF72DF868468188A88A42
:10312000FDF764F8684600884143688A0F183A46FC
:103130001021A87AFCF79AFF3A4639A0029900F0CC
:1031400079FA002719E02A48FF2106704170A98A00
:103150000A0A8270C1700020FDF706FBC01EC1B2D2
:10316000234A052004F050FAAA8A0028014608D014
:1031700032A000F05FFA7F1CFFB228798742E2D3C9
:103180000BE034A000F056FAA88A401CA882F2E7AF
:103190001021FCF771FFAE822E71102009E0A0060D
:1031A00009D50020FDF728F8014630A000F042FACA
:1031B0002020604021E700201FE700001052FF1F81
:1031C0003D3D3E204843495F434F4D4D414E445F96
:1031D000434F4D504C4554455F4556454E545F4313
:1031E0004F44453A2025780A0000000005030000FE
:1031F0002C86FF1F5B4E4F54465F54582045525259
:103200005D2025303278202534780A005B4E4F54FB
:10321000465F54585D2025303278202534780A00E6
:103220005B4449534C41545D207374203078253001
:10323000327820696E74762025640A005B44495315
:103240004C41545F54585D20253032782534780A3B
:10325000000000005B4449534C41545F54585D20CA
:1032600025303278202534780A0000005B454E5F17
:103270004C41545D203078253032780A000000003F
:1032800070B50546002408490848FEF777FD084850
:1032900003F004F9E80705D0064A18210648FEF7AE
:1032A0003FFF0446204670BD3283FF1FFFFF000032
:1032B000D9750211E88E02115050FF1F70B50C46EF
:1032C0000146002513480B0000F078F80705080AAE
:1032D0000D10201A200010220F490DE0408800E058
:1032E0008088208013E00078207010E00020FDF737
:1032F0003BFA0949C21E34312046FCF781FE06E044
:103300000020FDF731FAC21E0449F5E702252846E0
:1033100070BD00004450FF1F0881FF1F5683FF1F30
:10332000002803D0024988600020704711207047B0
:103330004450FF1F70B51546024600241C48130078
:1033400000F03CF807050B141D2233293300102927
:1033500029D80A462946174822E0022923D169784C
:103360002A780902114349BA41801FE002291AD183
:1033700069782A780902114349BA818016E0012947
:1033800011D12978017011E0FB290CD809480A46AF
:103390002946343004E0FB2905D80A462946064868
:1033A000FCF72EFE02E0182400E00224204670BD47
:1033B0004450FF1F0881FF1F5683FF1F30B474461F
:1033C000641E2578641CAB4200D21D46635D5B0021
:1033D000E31830BC18470A4610B501460020FCF738
:1033E00011FF10BDFFB583B00F4603981B49400085
:1033F0001646085AFCF70CFF04002AD00125601C71
:103400002670002F03D00699B847401C85B23006BD
:1034100010D51021039803F06FF8002801D0192669
:1034200013E06219E9B22046FFF7CEFA06000CD18C
:103430000C35ADB2042168460180019405816946CE
:103440000398FFF785FA060004D02046FCF7E6FE55
:1034500000E01326304607B0F0BD00004087FF1F94
:1034600010B586B0044614220FA16846FCF7DCFEB6
:10347000124930200870782048700620891C6A465E
:10348000A41D641E2378401E1B09D35C0B70237897
:1034900000061B071B0FD35C4B70891C000EF0D17C
:1034A0000870064806B010BD303132333435363737
:1034B0003839414243444546000000006084FF1F04
:1034C000F0B500208BB009900746064605460890E7
:1034D000079025A000F0AEF828A000F0ABF800247B
:1034E00004A92046FCF7A6FE6846838AC28A018B9F
:1034F000408A03936B4607C36846038A428B214682
:103500002AA000F097F86846418B0798641C0818B9
:1035100080B207906846018A0998E4B2081880B220
:1035200009906846418A0898081880B20890684651
:10353000008B401985B26846C08A801986B26846F9
:10354000808AC01987B2252CCAD323A000F072F854
:103550006846E0C02CA0089B099A079900F06AF819
:10356000FCF76EFE0BB0F0BD5B504552205354414A
:103570005453204E6F746966795D0D002D2D2D2DED
:103580002D20636820636F6E6E4E2072784E756DCD
:10359000207278437263207278546F4E20747841A1
:1035A000636B207478527479200D00005B50455293
:1035B0005D20253032642025303564202530356487
:1035C00020253035642025303564202530356420B1
:1035D000253035640A000000544F54414C20636884
:1035E00020636F6E6E4E2072784E756D2072784338
:1035F0007263207278546F4E20747841636B20742C
:1036000078527479200D00000A5B5045525D202DE0
:103610002D20253035642025303564202530356453
:103620002025303564202530356420253035640A66
:10363000000000000FB410B503AA0448029902F07C
:10364000ABFF10BC08BC04B018470000D733021110
:1036500038B5034B00240FCB0094FCF7F7FD38BDC1
:10366000548E021110B50C4602F0B6FE002804D0AC
:1036700040882146FCF73CFD10BD122010BD002201
:10368000002913D0002811D0012806D04A799206CB
:10369000920E4A71032805D007E04879C0221043F2
:1036A000487102E0402002434A71012210467047EF
:1036B00070B5124800250078052108421BD0202053
:1036C000FCF7E6FC0E4C0028A06013D0202200215D
:1036D000FCF7A2FC2020FCF7DBFCE060002804D013
:1036E00020220021FCF798FC05E0A068FCF7D6FC3E
:1036F0000020A0601325284670BD00009F52FF1FC8
:103700001053FF1F10B5054CE069002803D0FCF7EB
:1037100095FC0020E0610A20E07210BD7C4EFF1F86
:10372000F3B54B4C4B4FE06985B00E46002819D1DC
:10373000059800287ED0002E7CD000F0C3F9E072FE
:103740000A2812D300250E206843C0190622FF2143
:10375000FCF768FC002804D16D1CEDB20A2DF2D3F1
:103760000A25E572E07A0A2870D2E06900280ED0B6
:1037700082680025002A29D0E07A062148432130BA
:10378000C0B21C2103F056F9E069856054E0E07A8C
:10379000062148432030C0B20E21059A03F04AF9B1
:1037A0001022FF216846FCF737FCE07A6A46703049
:1037B000C0B2102103F03EF9E07A0E2148430A46D8
:1037C000C0190599FCF71CFCE66135E00269002A86
:1037D0000AD0E07A062148432230C0B21C2103F00F
:1037E00029F9E069056127E04269002A0AD0E07AF8
:1037F000062148432330C0B2102103F01BF9E069D1
:10380000456119E0C268002A19D0E07A06214843D0
:103810002430C0B2102103F00DF9E0690621C2681E
:10382000E07A103248432530C0B2042103F002F997
:10383000E06900E00AE0C560002007B0F0BD607AF2
:10384000002801D000F060FA00F078FA0120F4E7D7
:103850007C4EFF1FE475FF1FF0B589B017460E467A
:103860000446202200216846FCF7D6FB6846048007
:103870002E4C0225A1780171E2784271217A0177FC
:1038800006984108E0794900C307DB0F1943069108
:1038900081070029069901DA294300E0A94306912E
:1038A0000107234B069901D5194300E0994306917E
:1038B000C106204B069901D5194300E099430691B2
:1038C00081061D4B069901D5194300E099430691E5
:1038D000400704210028069801DA084300E08843E5
:1038E0000690002A05D001A8102214490230FCF7E6
:1038F00087FB2079002804D0002E02D006992943A6
:1039000006916946897D002800D001200143684660
:1039100081756078002800D00420014368468175D5
:103920003946FDF799FE09B0F0BD00007C4EFF1F3F
:10393000000100000002000000040000D475FF1F19
:1039400070B50025094E2C460E20604380190622D2
:10395000FF21FCF767FB002801D16D1CEDB2641C50
:10396000E4B20A2CF0D3284670BD0000E475FF1FB6
:103970007FB50C4606214843064615462036F0B270
:103980006A460E2103F02AF8002806D10622FF21FC
:103990006846FCF747FB002802D0002004B070BD49
:1039A00068468189002DC8B202D02043C0B200E031
:1039B000A043814206D069468881F0B26A460E2152
:1039C00003F038F80120E9E710B50024204600F0A4
:1039D00007F8641CE4B20A2C01D20028F6D010BD0E
:1039E000F0B5374C0546E07A8FB0854209D1012108
:1039F000207BFCF731FC0221207BFCF72DFCFFF73C
:103A000081FE2C460620444326462036F0B207AA03
:103A10000E2102F0E3FF002806D10622FF2107A8AD
:103A2000FCF700FB002803D0002108460FB0F0BDD2
:103A30000E22FF2107A8FCF7EFFA1C22FF2168469F
:103A4000FCF7EAFA1022FF210BA8FCF7E5FAF0B226
:103A500007AA0E2102F0EEFF064620462130C0B232
:103A60006A461C2102F0E6FF30430746204622301A
:103A7000C0B26A461C2102F0DDFF06462046233014
:103A80003E43C0B26A46102102F0D4FF06432046EE
:103A90002430C0B26A46102102F0CCFF0643253420
:103AA000E0B26A46042102F0C5FF30430446703597
:103AB000E8B20BAA102102F0BDFF01462143B4E792
:103AC0007C4EFF1F70B50A4D064600240E20604351
:103AD000401906223146FCF799FA002801D0204609
:103AE00070BD641CE4B20A2CF0D30A2070BD000043
:103AF000E475FF1F00229300CB5A834202D190004D
:103B000040187047521CD2B2042AF4D300207047E8
:103B10007FB50C460A280CD2002C0AD00621484357
:103B20002030C0B26A460E2102F058FF050003D0D3
:103B300007E0022004B070BD062269462046FCF76B
:103B40005FFA2846F6E700218A00835A491CDB43C6
:103B5000835212189378C9B2DB4393700429F3D3CC
:103B60007047000070B5144E00240E206043821987
:103B700020460621484320301546C0B20E2102F0EF
:103B80002DFF00280BD028460622FF21FCF744FA1F
:103B9000A81D0622FF21FCF73FFA0020A881641C23
:103BA000E4B20A2CE1D30548407A002801D000F0A5
:103BB000ABF800F0C3F870BDE475FF1F7C4EFF1F2B
:103BC00010B503494088097BFEF74CFB10BD00008F
:103BD0007C4EFF1F70B50E4604460621484388B050
:103BE00015462030C0B204AA0E2102F0F7FE0028CC
:103BF00043D10622FF2104A8FCF714FA00283CD187
:103C00007034E0B26A46102102F0E8FE002831D19B
:103C10006846FFF798FF002E06D069463046FFF74A
:103C200069FF00280DD015E0102200216846FCF73E
:103C3000F9F900281ED1102200216846FCF7ECF9A2
:103C400010E0002D19D069460020FFF753FF00282F
:103C500013D006808178A9420CD08570002D01D147
:103C6000002101806846FFF76EFFE0B26A4610212E
:103C700002F0E0FE012008B070BD0020FBE700006C
:103C800070B51E4C0646206A1D4D86B000280BD12B
:103C900020461030009002231A4A29460120FEF7E0
:103CA000BBFB2062002826D004A80222002100903D
:103CB0000292019103AB228A3046216AFEF710F985
:103CC00000280CD16846017B407B000208180204E2
:103CD000120C04D0206A41893046FDF71FFA0023F8
:103CE000228A2946206AFEF7C9FB2062002802D0FA
:103CF000002006B070BD0120FBE700007C4EFF1FD6
:103D0000FFFF0000A48F021170B5FCF7ABFA0A4E5A
:103D100000240E206043801905460622FF21FCF78F
:103D200081F9002802D12946FCF7A2FA641CE4B20A
:103D30000A2CEED370BD0000E475FF1F08B5FFF735
:103D4000FFFD012801D9022000E00A206946087021
:103D50006A4601210520FEF73FFD08BD002909D074
:103D6000012807D1497989098901C02902D0402950
:103D700001D00220704703207047FFB500200E4697
:103D800008701AE01C5C401CC5B2002C17D0281922
:103D9000904214D85F5D6D1CEDB2384600F08BFE8A
:103DA000002806D0641EE0B2307000998F4202D124
:103DB000581904B0F0BD4019C0B29042E2D30020BF
:103DC000F7E7000010B5044C2068002803D0FCF78A
:103DD00065F90020206010BDFC52FF1F10B50D4C8E
:103DE000A068002815D0006A002801D0FCF756F919
:103DF000A068406A002801D0FCF750F9A068806AEA
:103E0000002801D0FCF74AF9A068FCF747F9002028
:103E1000A06010BD0053FF1F10B5044C606800285F
:103E200003D0FCF73BF90020606010BD0053FF1F7A
:103E30000100044805D104498978002901D00248CD
:103E4000801D70476087FF1F9E52FF1F01488078CA
:103E5000704700009E52FF1F0148406870470000F5
:103E60005087FF1F01488068704700005087FF1F80
:103E70000148C068006870475087FF1F10B50748A9
:103E8000C0680168491C016005480078FF2803D01C
:103E900001218903FCF7D8F810BD00005087FF1FEF
:103EA0009E52FF1F02484068002800D00120704742
:103EB000F852FF1FFFB581B00B9F0D9E0A9D03981E
:103EC00002F076FA040042D0019800283FD1207910
:103ED0001021084320710499490702D502210843A3
:103EE00001E0FD210840207128460C993843084321
:103EF0003043207902D00421084301E0FB2108402F
:103F00002071002E06D03069102220623146A018A0
:103F1000FCF776F8002D02D00298002805D0002F7B
:103F200015D00298012808D011E0606A002801D05D
:103F3000FCF7B4F81C21284606E0606A002801D08E
:103F4000FCF7ACF81C213846FCF7AEF86062224C56
:103F5000A06800283ED0002D0FD0006A002806D1AE
:103F60001C20FCF795F8A1680028086205D0A0681D
:103F70001C22006A2946FCF743F80C98002810D050
:103F8000A068406A002806D11620FCF781F8A168D5
:103F90000028486205D0A0681622406A0C99FCF7F8
:103FA0002FF8002E10D0A068806A002806D11420B7
:103FB000FCF76EF8A1680028886205D0A06814227A
:103FC000806A3146FCF71CF83B46049A0399019835
:103FD00003F054F805B0F0BD0053FF1FF3B581B0F6
:103FE000019802F0E5F9050029D00E20FCF798F8B9
:103FF000040024D02620FDF711FC060000D12E7805
:10400000D0202070002767700B20A0700622A91D09
:10401000E01CFBF7F5FF019860810298C1070120C1
:10402000002901D0207300E027730299890701D588
:10403000607300E06773F0B22146FCF753F8FEBDF1
:1040400010B581881F4B0124CA1A994237D011DC60
:104050001D4BCA1A994219D007DC1C4A8A1810D085
:10406000022A1ED0032A29D11BE0472A27D0482A3A
:1040700024D124E01300FFF7A1F9062122222222F5
:1040800022218068007800F0D7FC08E08068827800
:1040900041781202891889B2007800F02DFD04469B
:1040A0000DE0094A921E914201D1012200E0002256
:1040B00080680178104600F007FD00E000242046EB
:1040C00010BD0000532000000A200000FADFFFFFAF
:1040D00070B51A4D1A4A0146002628781268194C04
:1040E00001290CD0002A09D017490978490705D5BC
:1040F0000221FBF7C1FF6680FFF764FE70BD618897
:10410000002903D0114B1B78002B05D0002AF5D0D5
:104110001078FDF759FB70BD3C2902D33C39618012
:1041200070BD0221FBF7A8FF62887D20C0004243DA
:1041300002212878FBF79AFF668070BD2D53FF1F80
:10414000FC52FF1F1053FF1F9F52FF1FA152FF1F62
:1041500008B5418900910389C2888188C07800F040
:10416000B7FB08BDF0B587B0040053D02A4D68688E
:10417000002823D0067829480068002804D0416828
:10418000002901D0002088472146E07908310591B7
:10419000FFF7E4FDE0710246277D638A218AE0890A
:1041A000019002A88AC0A0880090E0783146059B63
:1041B00002F0D0FFE078002802D00CE01848D9E7E0
:1041C000E189059800900191E379A18801223046A8
:1041D00002F09EF8E0706868002811D0FFF71CFE1E
:1041E000287800280CD06978FFF73CFA002807D01F
:1041F000E078A2880346297802F0D9FF00202870D1
:10420000A0881721FCF746FCA088FCF737F8A088A7
:10421000FCF73AF807B0F0BD0053FF1F3053FF1F03
:104220009E52FF1F70B504460025808802F0C0F83A
:10423000002803D00578A08802F042F9124E3078A9
:10424000002808D0854206D17178FFF70BFA0028C4
:1042500009D000203070002D05D0A379A288A07865
:10426000294602F0A4FFB068002801D0FFF7B6FD90
:10427000A0881721FCF70EFCA088FBF7FFFFA088A1
:10428000FCF702F870BD00000053FF1F70B5828874
:10429000294D0124531B2949AA4242D019DC284D3B
:1042A000531BAA4218D00BDC264BD21826D0254B24
:1042B0001033D2181ED0032A17D0042A39D10BE0AC
:1042C000012B09D0022B07D0032B21D0042B30D196
:1042D0001AE0433B072B2CD8496800292AD00968EB
:1042E000002927D08847044624E08068007800F041
:1042F000ADF81FE0806800F001F9F4E78068411C28
:10430000007800F0D9F8EEE783681B78002B11D015
:10431000896800290ED00B6808E0014610469847CE
:10432000E1E709490968002904D04B68002BF4D162
:1043300000E00024204670BD0E2000002C53FF1F1B
:1043400008200000F7EFFFFF0C53FF1F10B5094CCA
:10435000A17800290CD001460622A01DFBF750FED3
:10436000A11DA078FFF78BF9A01DFBF793FF10BDEF
:10437000002010BD9E52FF1F1CB52F490378012459
:104380000A68912B02D0A22B2ED13EE0417805295C
:1043900009D00E2904D00F2908D03E2924D115E0D8
:1043A000FFF774FF10E0FFF73DFF42E00146808811
:1043B000224B0124C31801D0062B15D1002A38D076
:1043C0005268002A35D09047044632E081780124B3
:1043D000032917D004DC012911D0022904D105E0FA
:1043E000152926D0162924D0002422E014498968F2
:1043F00000291ED0496800291BD0884719E0FFF723
:10440000B1FE16E0FFF7A4FE13E00E490978490754
:1044100007D500216A46118001794088FEF720FA0D
:1044200007E0002A05D05268002A02D0014606485B
:10443000904720461CBD00000C53FF1FF3DFFFFF19
:104440002C53FF1F9F52FF1FFFFF0000F8B5164FB0
:104450000646BD1F2878FF2814D00A20FBF760FE0F
:1044600004000FD0D020207066700820A070A878BB
:10447000E07006223946201DFBF7C2FD2146287850
:10448000FBF730FEE87801280DD1084800680028C5
:1044900003D08068002800D080470648044A0421E1
:1044A0000078FBF713FEF8BDA452FF1F3053FF1F27
:1044B00060EA00002D53FF1F70B500240546002858
:1044C00005D1002903D006220B48FBF799FD0A48C5
:1044D00010380178012907D10124002D06D00021D0
:1044E0000170284600F0D0F9204670BD022101700D
:1044F000FBF7D6FEF8E700006087FF1F10B5002429
:10450000002813D002780B49002A03D14288CA82BE
:1045100002790A760A78022A08D102780124002A50
:1045200006D000220A70007800F0AEF9204610BDD7
:104530000322F7E75087FF1F0149486070470000DA
:104540002C53FF1FF8B57A4C8778014600250726C3
:104550006079A2793B00FEF731FF0805361A37373C
:104560005F9ACD36487800285CD1714806223C30ED
:10457000C91CFBF745FD0120A0716D4B014642337C
:1045800062786079FDF776FB00284BD1A8E00F46F2
:104590004978002946D1F978002906D0654BA278E0
:1045A0000021FDF767FB78700AE0022A0BD0012199
:1045B000FBF768FD002803D101216079FBF744FD7A
:1045C000787800282ED1F8BD497800292AD1032F08
:1045D00009D0A289002A0CD0217800290AD0012113
:1045E000FBF744FD06E0052A01D0022012E0062078
:1045F00010E02570A079062802D0042802D008E037
:10460000052007E00120207001466079FBF71CFDC2
:1046100066E00320A07163E048780F46002803D0CD
:10462000312832D0A6715BE041480622391D363070
:10463000FBF7E6FC7889E081B8892082F8896082FE
:104640000520A071A28A002A03D002216079FBF71D
:104650000DFDB889E083F8892084388A6084E07889
:1046600001280AD11F20FDF7D9F87D21C900484350
:10467000024604216079FBF7F9FC7A89F878042373
:10468000391DFCF723FA25702AE02570C1E7284878
:104690000E46062200213630FBF7BEFCE58325845A
:1046A000658404216079FBF7E7FC08216079FBF75A
:1046B000E3FCB079082808D00320A07120780028F6
:1046C00005D06079FDF780F807E00420F5E70120C8
:1046D000207001466079FBF7B7FC0020C043E08101
:1046E000606A002800D16EE701680029FBD0A0793C
:1046F0008847F8BD0D460821FBF7BEFC68782946BF
:104700000028F6D1E888E0832889208448896084DD
:1047100004216079FBF7B6FC0028EAD1A06A0028E2
:10472000E7D00368628C218CE08B9847F8BD0000CD
:10473000244FFF1F9076FF1F10B50178224C91295E
:1047400006D0A22926D0D02901D1FFF7FBFE10BD4B
:1047500041780E29FBD181881C4A91420FD1816892
:1047600003200856A1790529F1D17F28EFD0616A8D
:104770000029ECD049680029E9D0884710BD144AC7
:104780009142FBD1806883784278017811A0FEF7CE
:1047900051FF10BD41791329FBD10089012802D1B5
:1047A0002079022808D00520FDF738F802460821B4
:1047B0006079FBF75BFC10BD08216079FBF75CFCBE
:1047C000FCF73AFF10BD0000244FFF1F0514000046
:1047D000222000005B48434920444C455D2564206D
:1047E00025642025640A00007CB5154C0546E08B45
:1047F000E18A88420AD3218B884207D8208C618BBA
:10480000884203D1608CA18B884217D00520FDF728
:1048100005F80646E18A68460180218B4180618B5C
:104820008180A18BC18062796946E089FEF724F816
:104830002571324608216079FBF718FC7CBD000029
:10484000244FFF1FF8B507460E46084601F0B0FD9D
:10485000040018D02620FCF7E1FF050000D12578E0
:104860000620FBF75DFC04000DD006220021FBF7BB
:10487000D3FBD020207067700E20A070A680E8B215
:104880002146FBF72FFCF8BD70B50F4D0646287882
:10489000FF2818D00E20FBF743FC040013D0D020D3
:1048A000207066700020A07006220849E01CFBF70B
:1048B000A7FB06481038C18A6181007E207321461B
:1048C0002878FBF70FFC70BD9E52FF1F6087FF1F0B
:1048D000FFB581B01E4617460D460C20FBF720FCA5
:1048E000040013D0284601F063FD002810D00078A2
:1048F000D0212170019961700721A170A580E78006
:1049000026810A9961812146FBF7ECFB05B0F0BDD9
:104910000048ECE79E52FF1F70B50D4D0446286815
:104920000E46002812D00620FBF7FAFB010009D042
:10493000D02008704C70032088708E802868007822
:10494000FBF7D0FB002C01D0FFF73CFA70BD000054
:10495000FC52FF1FFFB581B01F460E46084601F00E
:1049600027FD050022D01020FBF7DAFB04001DD044
:1049700010220021FBF750FB2620FCF74FFF0028F8
:1049800000D12878D0212170019961700F21A17088
:10499000A6800399217267720A99A1720B99E1723C
:1049A0000C99E160C0B22146FBF79CFB05B0F0BD5D
:1049B000F0B51F4D85B02868002837D08778FCF700
:1049C000A9FF002805D00A20FCF728FF04900B203F
:1049D0000EE001F0C1FA002805D00620FCF71EFF0A
:1049E0000490072004E00820FCF718FF0490092039
:1049F000FCF714FF04460F480078002814D0012665
:104A00002968C878091DFEF73AFE29686D46CA7AFA
:104A10008B7A091D0BC5039233463A46214604980A
:104A2000FBF744FC05B0F0BD0026E9E70120F9E7FB
:104A3000FC52FF1FA052FF1F10B509490968002949
:104A40000CD0002805D101204870FBF733FB00286B
:104A500002D00021FFF760FF012010BD002010BD33
:104A6000FC52FF1FF8B50C4601F0A2FC020021D059
:104A700026201462FCF7D2FE05062D0E00D1157813
:104A80005679901D00901020176AFBF749FB04002F
:104A900010D0D0202070002060700920A070E67037
:104AA0000622201D0099FBF7ABFA21462846E76055
:104AB000FBF718FBF8BD411E152903D9FF2801D0CB
:104AC000002070470120704770B50A4E05463078C7
:104AD0000C46FF280DD00420FBF722FB010008D074
:104AE000D02008704C7002208870CD703078FBF7B1
:104AF000F9FA70BD1053FF1FF3B5284D81B0286837
:104B000000284AD04078264E012803D0307800286B
:104B100031D041E001F020FA224F002813D00120CB
:104B2000FCF77CFE0446412808D91F4A0221387848
:104B3000FBF7CCFA1D483C3C44800EE07D20C000D1
:104B40002246424303E00020FCF768FE0246002AAA
:104B500003D002213878FBF789FA296802204870CF
:104B60003078002802D00020307015E002990198BA
:104B7000FFF7D2FE10E00320019CFBF7D1FA010001
:104B800008D0D02008704C70042088702868007805
:104B9000FBF7A8FAFFF716F90120FEBDFC52FF1F34
:104BA000A152FF1F2D53FF1F60EA00001053FF1F8B
:104BB000074A00218B00D35A834202D18800801813
:104BC0007047491CC9B20929F4D30020704700007E
:104BD0006C87FF1F10B50C46FFF7EAFF00280DD0C9
:104BE000002C00D020608078FE2803D0FF2803D05E
:104BF000162010BD172010BD002010BD022010BDD2
:104C0000FFB581B0FF201E46174605300A9DFBF711
:104C100087FA04001BD0B020207067700298608073
:104C20002671002D06D02046FC2229460830FBF7CD
:104C3000E7F905E02046FC2200210830FBF7ECF9FB
:104C400021460198FBF74EFA002005B0F0BD132075
:104C5000FBE700000548172202800988172901D2C6
:104C60000420704701800020704700009A52FF1F07
:104C70000020704708B50A460888498888420BD842
:104C8000002809D0002300931379521DFDF7C4FBBF
:104C9000002803D0002008BD012008BD0A2008BD5F
:104CA000F3B50D4608884988002687B0814215D3A0
:104CB000002813D0002769460F71009700236988E8
:104CC0001A46FDF7A9FB04004FD06846007900287A
:104CD00007D069464979012925D008E0012009B0AB
:104CE000F0BD217802291BD002216A46517112229F
:104CF000504301AA618980184180684600791223D7
:104D0000584380181022001D6168FBF779F9684646
:104D10000079401C0106090E684601711FD11AE096
:104D200001216A465171217802291ED1820001A811
:104D30006189121851806A461279616892001018D0
:104D40000222001DFBF75CF96A461079401CC0B2D4
:104D50001071052803D261890A48814200D10126D9
:104D60006089401C80B2002EA7D0684600790028D8
:104D700005D001A90798FBF7E3FC0020AFE70A2064
:104D8000ADE70000FFFF000038B50C4608884988F1
:104D9000884215D8002813D02379621D02210B48C0
:104DA000FBF753FC00280DD0002000902379618888
:104DB0002088621DFDF730FB002805D0002038BD9B
:104DC000012038BD102038BD0A2038BD988F02114F
:104DD00008B50A460888498888420BD8002809D0B7
:104DE000002300931379521DFDF716FB002803D012
:104DF000002008BD012008BD0A2008BDF8B5002527
:104E00000F4606460C46E03717E06800205A00219E
:104E1000FDF7DCFA002809D0017A3046FDF798FC4E
:104E2000002808D06900615A2180F8BD6800205A26
:104E300020800120F8BD6D1CEDB2B87DA842E4D8F9
:104E40000020F8BD10B5044608880021FDF7BEFA21
:104E5000002804D0017A2046FDF77AFC10BD01201D
:104E600010BD000030B585B005466946FBF7ECFC87
:104E7000040026D168468078C1071E4809D08268A0
:104E8000002A04D0688869469047044619E0062441
:104E900017E04268002A05D06888694690470400F8
:104EA00001D10EE0062468464078002809D1684602
:104EB000817801730021C1810474688803A9FBF71C
:104EC000FFFBA868002801D0FBF7A8F9002C05D14A
:104ED00068468078122807D01B2803D068880121F3
:104EE000FDF7D6FC05B030BD684640780128F5D105
:104EF000F8E700004053FF1F70B505460C460888D0
:104F00000021FDF763FA002805D0017A22462846E1
:104F1000FDF731FC70BD012070BD00000149486003
:104F2000704700004053FF1F10B50446801C00F07E
:104F300047FDFF20E07010BD10B500F025F80028F7
:104F400000D0806810BD00229300CB5A834202D16A
:104F5000900040187047521CD2B2092AF4D30020A6
:104F600070470000074A0021CB00D35A834202D188
:104F7000C80080187047491CC9B20829F4D3002022
:104F800070470000D076FF1F0649496805E08A880F
:104F9000824201D18868704709680029F7D1002052
:104FA00070470000884FFF1FF8B50746012906D05B
:104FB000022923D1012101F09FFA00281ED1384691
:104FC000FFF7D0FF050015D000240D4E0CE0F820AF
:104FD0006968604308180188002908D0F822002178
:104FE000FBF71AF8641CE4B270788442EFD3002017
:104FF000C043288003493846FCF7C0FEF8BD0000D6
:10500000884FFF1FC080FF1FF3B5064683B00830EE
:105010000190002000907088FFF7A4FF07002FD0B8
:10502000002523E0F820796868430C1821880029BE
:1050300020D00198007801280FD160880090237952
:105040007088621DFDF72CF90090002805D00199A9
:1050500000200870049821880180F8220021204651
:10506000FAF7DAFF00206D1C2080EDB20748407887
:105070008542D7D30020C04338800098002802D151
:105080007088FBF747FB009805B0F0BD884FFF1F05
:10509000F3B50546374C064685B00835F6220021A3
:1050A0002046FAF7B9FF03A800902B796988288871
:1050B0006A1DFDF7B1F9074645E070882E4A4100A8
:1050C000515C2E4BC91FC9B200930022029101927C
:1050D000284B69468A89F63B3946FCF701FF0028D0
:1050E00012D12648E979C01EC27891420CD12149DB
:1050F0002846F6390830FAF789FF002804D02178CD
:10510000788989000919488068468289698804ABD2
:105110003846FDF7B3F907462078810009194A8817
:10512000002A10D0002F05D06A46128A401C207039
:105130008A800AE002060021920DC9431219401C20
:105140002070918006E0002F04D00D48217800885F
:105150008142B2D32078002806D070882146FBF720
:10516000E1FA002007B0F0BD0698298801800A20E6
:10517000F8E70000C67FFF1F4087FF1F8B4FFF1F10
:105180009652FF1FF0B585B004460020694688811D
:1051900020790E2869D00FDC082823D004DC0228EF
:1051A00013D0062818D118E025460835484F0A289C
:1051B0001DD00C2810D138E010285BD012285ED00A
:1051C000162861D0182877D163E043484149008808
:1051D00008806088FBF77EFA6EE003A92046FFF79F
:1051E00057FF5AE003A9204600F076F955E02888D9
:1051F00004A9FDF7EBF8010015D06088354E420098
:10520000BA5C0023521ED2B20193029200966A4603
:10521000731C128AFCF764FE00281DD16088314699
:10522000FBF718FC48E0012016E0288804A9FDF7E8
:10523000CDF80100F7D060886B884200BA5C254E3B
:10524000521ED2B20193029200966A46731C128AD1
:10525000FCF746FE002803D029886A4691811CE0AD
:1052600060883146FBF7C6FB26E003A9204600F024
:10527000D3F912E003A9204600F082F80DE003A95B
:10528000204600F039FA08E003A9204600F028F88B
:1052900003E003A92046FFF7B7FE00280CD0617891
:1052A000142909D00B4922790A706A4692894A80EA
:1052B00008716088FBF704FA2046FDF770F807488C
:1052C0008168002901D02046884705B0F0BD000064
:1052D0004087FF1FC67FFF1F9452FF1F884FFF1F8D
:1052E000F8B504460F460546083400896946FDF7BF
:1052F0006DF806003AD0307A80060ED568460088F0
:10530000FFF71AFE030006D068881222314698473C
:10531000060002D02BE00E2629E06E883046FFF70B
:1053200021FE010005D11448FFF71CFE01000ED03C
:105330000E80124A0020527807E0F8264B68464358
:105340009B5B002B05D0401CC0B29042F5D30926D0
:105350000DE04968F822504308182146FAF750FE3C
:10536000002668882146FBF73BFB02E001262088E7
:1053700038803046F8BD0000FFFF0000884FFF1F57
:10538000F3B58BB000200B9E0746039004A8009055
:105390003246337B718930894C4C0D320836FDF72B
:1053A0003BF8054678E00B98297A4088FDF7D0F95C
:1053B000070003D00C98698901806FE00B9844497D
:1053C000408800234200895C0193891FCAB2414989
:1053D000009102923D4B69460A8AF63B2946FCF74A
:1053E0007FFD0700E6D10398002833D03948617863
:1053F000C01EC078021D914253D1039909180B9821
:10540000408842003248805A801F814249DC03991B
:10541000A87A6118887003986989401CC0B2221864
:10542000090A401C9170C0B203906846028A7188D4
:1054300007AB2846FDF722F8050011D0039869460E
:10544000898B2018817003986946401C898BC0B2F3
:10545000090A0CE01F48C01EC078001D6070D6E726
:105460000398FF21201881700398401CC0B22218B5
:105470009170401CC0B217490390C91ECA781349E5
:105480002018F639801CFAF7BBFD12490398C91E93
:10549000C9784018C0B20390002D84D10398002829
:1054A0000CD061780398FAF7A1FE20700B98214682
:1054B0004088FBF7A9FA00200DB0F0BD002F00D105
:1054C0000A270C98318801803846F5E7C67FFF1F10
:1054D0004087FF1F8B4FFF1FF3B507460446083771
:1054E0008BB049480490388800252E4605906AE024
:1054F00007A800903B7979887A1D0598FCF78CFF06
:105500000890002852D0408905900898017A608858
:10551000FDF71EF906005DD160883C494200895CB8
:105520003B4B091FC9B20093002202910192364BF6
:1055300069468A8BF63B0899FCF7D2FC060049D1F4
:10554000002D36D0049841783148C01EC078801CA8
:10555000814241D12E4BDB1ED87829186088420049
:105560002A48805A001F814220DC0898817A0498DA
:105570004019817008996D1C4989E8B20A0A04999A
:1055800009188A70401CC5B219460498CA781E4989
:105590004019F639801CFAF733FD1D481D49C01E1D
:1055A000C0782818C5B20598884209D1002D13D1BA
:1055B00023E017480499C01EC078801C4870C9E7D2
:1055C000401C80B20590608841001048405A001F7E
:1055D000A8428DDA002D0ED0049841782846FAF7BB
:1055E00005FE01460498017060880499FBF71AFAD9
:1055F00000200DB0F0BD002E00D10A260C990598B0
:1056000008803046F5E70000C67FFF1F4087FF1F78
:105610008B4FFF1FFFFF0000F3B506460446002036
:1056200085B0324D00900836287007463046E0308D
:10563000049048E07800305A03A9FCF7C7FE010047
:105640001AD060882B4B844642002948805C009326
:10565000401EC0B2002202900192244B684682890B
:10566000F63B6046FCF73CFC0090002807D0780031
:10567000315A0698018035E001200090F7E71D4976
:105680002878C91EC978421861884B001849C95A40
:105690004B1E9A4204DD081A1649C91E401EC870E6
:1056A0002978681C08181349C91ECA780F49F639A9
:1056B000FAF7A6FC0F482978C01EC0780818287091
:1056C0007F1C0498FFB2807DB84207D96088297892
:1056D00042000748805A401E8142ABDB6088294661
:1056E000FBF7AEF9009807B0F0BD0000C67FFF1FC2
:1056F0004087FF1F8B4FFF1FF3B5054683B004465D
:105700000835008901A9FCF761FE2746E8370646FF
:10571000002822D0307A80060ED568468088FFF7B0
:105720000BFC030006D06088122231469847060021
:1057300002D013E00E2611E000200090AB782988FB
:105740006088EA1CFCF7ACFD060007D1387E002813
:1057500007D16088FBF7AAF903E00126049829889D
:105760000180387E002802D0002005B0F0BD304610
:10577000FBE70000F8B504461F208001604382B2B9
:1057800018480025184F45707868002807D0002079
:10579000C100C919401CC0B24D600828F8D3124E90
:1057A000002140363046FAF737FC002108466043B6
:1057B000C0B2F822504383190B48CA0012180020C7
:1057C000536005E0F82747435368401CDD53C0B2DF
:1057D000A042F7D3491CC9B20829E7D30148447055
:1057E0000020F8BD884FFF1FD076FF1F7CB50C78D6
:1057F000069D022C0ED14C68267864782402341958
:10580000054EA4B2F44205D1022400950194FCF7A0
:10581000CDFA7CBD01207CBDFED6FFFFF8B5054664
:105820001D48854223D0461C002921D001292BD0B8
:1058300002291CD10121284600F05EFE002816D165
:105840002846FFF7B5F9040011D0A078FF280ED044
:10585000FE2807D000200090E0781E23142229465D
:10586000FFF7CEF92046FFF75FFBFF20A070F8BDE1
:105870002846FFF79DF90028F9D13046FFF798F93F
:105880000028F4D00580F8BD2846FFF791F9040000
:10589000F9D02680D9E70000FEFF000038B50400EB
:1058A00010D0A078FF280DD0FE280BD0002000904B
:1058B0002188E0781E231722FFF7A2F9FE20A070AE
:1058C000FF20E07038BD0000F3B50C468978C1B008
:1058D0001E2914D02E4D2878FF2829D0182927D822
:1058E0004808C2002B481218803A976F002F1FD02B
:1058F000D06F00281CD02078002817D113E04198E1
:10590000FFF756F905000BD000200090A378E87847
:1059100000224199FFF774F906462846FFF704FB79
:10592000304643B0F0BD6278012A03D1122901D07C
:105930000620F6E702AE0096A3886178A268B84711
:105940000028EED1A0784008C1001248081880381D
:10595000C26F02A94198904700280FD061780029B2
:10596000DFD1A27869460A700871684601894180D2
:1059700069464198FAF7A4FE0020D2E7A378042BE9
:10598000CFD00096002228784199FFF739F9C8E76F
:105990003853FF1F348F021100B50346FCF7C8FED1
:1059A000002803D0C018401E80B200BD184600BDBC
:1059B00010B57D24E400624392B2FAF77DFC10BD7D
:1059C00010B5040008D02078FF2805D0FE2803D0A9
:1059D000FAF778FCFF20207010BD0000F7B50646EE
:1059E0000F461020FAF754FB05461020FAF750FB3B
:1059F0000446002D3AD0002C2DD010220021FAF7B9
:105A00000BFB2A462146304601F076FF060023D1E3
:105A10002878000604D43946284600F085FB08E0C3
:105A20002146284600F080FB3A461149204603F003
:105A300005FA3878000604D43846029900F074FB61
:105A40000AE02146384600F06FFB09492046029AD9
:105A500003F0F4F900E013262846FAF71FFB002CA8
:105A600002D02046FAF71AFB3046FEBD1326F6E7B1
:105A7000BE8F0211F8B5069800271D4614460E4643
:105A8000002801D00B20F8BD30780021022801D079
:105A900019704DE0706802784078000210181522E5
:105AA00080B25202801A0300FDF788FC0504121F21
:105AB0001A254100F068FAF72DFBC2B2079882421E
:105AC00000D902462A70F1682046FAF799FA30E0C8
:105AD000F0680221008829702070000A607028E0B8
